{
  "_format": "hh-sol-artifact-1",
  "contractName": "TestERC721",
  "sourceName": "contracts/ERC721.sol",
  "abi": [
    {
      "inputs": [
        {
          "internalType": "address",
          "name": "initialOwner",
          "type": "address"
        }
      ],
      "stateMutability": "nonpayable",
      "type": "constructor"
    },
    {
      "inputs": [
        {
          "internalType": "address",
          "name": "sender",
          "type": "address"
        },
        {
          "internalType": "uint256",
          "name": "tokenId",
          "type": "uint256"
        },
        {
          "internalType": "address",
          "name": "owner",
          "type": "address"
        }
      ],
      "name": "ERC721IncorrectOwner",
      "type": "error"
    },
    {
      "inputs": [
        {
          "internalType": "address",
          "name": "operator",
          "type": "address"
        },
        {
          "internalType": "uint256",
          "name": "tokenId",
          "type": "uint256"
        }
      ],
      "name": "ERC721InsufficientApproval",
      "type": "error"
    },
    {
      "inputs": [
        {
          "internalType": "address",
          "name": "approver",
          "type": "address"
        }
      ],
      "name": "ERC721InvalidApprover",
      "type": "error"
    },
    {
      "inputs": [
        {
          "internalType": "address",
          "name": "operator",
          "type": "address"
        }
      ],
      "name": "ERC721InvalidOperator",
      "type": "error"
    },
    {
      "inputs": [
        {
          "internalType": "address",
          "name": "owner",
          "type": "address"
        }
      ],
      "name": "ERC721InvalidOwner",
      "type": "error"
    },
    {
      "inputs": [
        {
          "internalType": "address",
          "name": "receiver",
          "type": "address"
        }
      ],
      "name": "ERC721InvalidReceiver",
      "type": "error"
    },
    {
      "inputs": [
        {
          "internalType": "address",
          "name": "sender",
          "type": "address"
        }
      ],
      "name": "ERC721InvalidSender",
      "type": "error"
    },
    {
      "inputs": [
        {
          "internalType": "uint256",
          "name": "tokenId",
          "type": "uint256"
        }
      ],
      "name": "ERC721NonexistentToken",
      "type": "error"
    },
    {
      "inputs": [
        {
          "internalType": "address",
          "name": "owner",
          "type": "address"
        }
      ],
      "name": "OwnableInvalidOwner",
      "type": "error"
    },
    {
      "inputs": [
        {
          "internalType": "address",
          "name": "account",
          "type": "address"
        }
      ],
      "name": "OwnableUnauthorizedAccount",
      "type": "error"
    },
    {
      "anonymous": false,
      "inputs": [
        {
          "indexed": true,
          "internalType": "address",
          "name": "owner",
          "type": "address"
        },
        {
          "indexed": true,
          "internalType": "address",
          "name": "approved",
          "type": "address"
        },
        {
          "indexed": true,
          "internalType": "uint256",
          "name": "tokenId",
          "type": "uint256"
        }
      ],
      "name": "Approval",
      "type": "event"
    },
    {
      "anonymous": false,
      "inputs": [
        {
          "indexed": true,
          "internalType": "address",
          "name": "owner",
          "type": "address"
        },
        {
          "indexed": true,
          "internalType": "address",
          "name": "operator",
          "type": "address"
        },
        {
          "indexed": false,
          "internalType": "bool",
          "name": "approved",
          "type": "bool"
        }
      ],
      "name": "ApprovalForAll",
      "type": "event"
    },
    {
      "anonymous": false,
      "inputs": [
        {
          "indexed": false,
          "internalType": "uint256",
          "name": "_fromTokenId",
          "type": "uint256"
        },
        {
          "indexed": false,
          "internalType": "uint256",
          "name": "_toTokenId",
          "type": "uint256"
        }
      ],
      "name": "BatchMetadataUpdate",
      "type": "event"
    },
    {
      "anonymous": false,
      "inputs": [
        {
          "indexed": false,
          "internalType": "uint256",
          "name": "_tokenId",
          "type": "uint256"
        }
      ],
      "name": "MetadataUpdate",
      "type": "event"
    },
    {
      "anonymous": false,
      "inputs": [
        {
          "indexed": true,
          "internalType": "address",
          "name": "previousOwner",
          "type": "address"
        },
        {
          "indexed": true,
          "internalType": "address",
          "name": "newOwner",
          "type": "address"
        }
      ],
      "name": "OwnershipTransferred",
      "type": "event"
    },
    {
      "anonymous": false,
      "inputs": [
        {
          "indexed": true,
          "internalType": "address",
          "name": "from",
          "type": "address"
        },
        {
          "indexed": true,
          "internalType": "address",
          "name": "to",
          "type": "address"
        },
        {
          "indexed": true,
          "internalType": "uint256",
          "name": "tokenId",
          "type": "uint256"
        }
      ],
      "name": "Transfer",
      "type": "event"
    },
    {
      "inputs": [
        {
          "internalType": "address",
          "name": "to",
          "type": "address"
        },
        {
          "internalType": "uint256",
          "name": "tokenId",
          "type": "uint256"
        }
      ],
      "name": "approve",
      "outputs": [],
      "stateMutability": "nonpayable",
      "type": "function"
    },
    {
      "inputs": [
        {
          "internalType": "address",
          "name": "owner",
          "type": "address"
        }
      ],
      "name": "balanceOf",
      "outputs": [
        {
          "internalType": "uint256",
          "name": "",
          "type": "uint256"
        }
      ],
      "stateMutability": "view",
      "type": "function"
    },
    {
      "inputs": [
        {
          "internalType": "uint256",
          "name": "tokenId",
          "type": "uint256"
        }
      ],
      "name": "burn",
      "outputs": [],
      "stateMutability": "nonpayable",
      "type": "function"
    },
    {
      "inputs": [
        {
          "internalType": "uint256",
          "name": "tokenId",
          "type": "uint256"
        }
      ],
      "name": "getApproved",
      "outputs": [
        {
          "internalType": "address",
          "name": "",
          "type": "address"
        }
      ],
      "stateMutability": "view",
      "type": "function"
    },
    {
      "inputs": [
        {
          "internalType": "address",
          "name": "owner",
          "type": "address"
        },
        {
          "internalType": "address",
          "name": "operator",
          "type": "address"
        }
      ],
      "name": "isApprovedForAll",
      "outputs": [
        {
          "internalType": "bool",
          "name": "",
          "type": "bool"
        }
      ],
      "stateMutability": "view",
      "type": "function"
    },
    {
      "inputs": [
        {
          "internalType": "address",
          "name": "_recipient",
          "type": "address"
        },
        {
          "internalType": "string",
          "name": "_tokenURI",
          "type": "string"
        }
      ],
      "name": "mint",
      "outputs": [
        {
          "internalType": "uint256",
          "name": "",
          "type": "uint256"
        }
      ],
      "stateMutability": "payable",
      "type": "function"
    },
    {
      "inputs": [],
      "name": "mintPrice",
      "outputs": [
        {
          "internalType": "uint256",
          "name": "",
          "type": "uint256"
        }
      ],
      "stateMutability": "view",
      "type": "function"
    },
    {
      "inputs": [],
      "name": "name",
      "outputs": [
        {
          "internalType": "string",
          "name": "",
          "type": "string"
        }
      ],
      "stateMutability": "view",
      "type": "function"
    },
    {
      "inputs": [],
      "name": "owner",
      "outputs": [
        {
          "internalType": "address",
          "name": "",
          "type": "address"
        }
      ],
      "stateMutability": "view",
      "type": "function"
    },
    {
      "inputs": [
        {
          "internalType": "uint256",
          "name": "tokenId",
          "type": "uint256"
        }
      ],
      "name": "ownerOf",
      "outputs": [
        {
          "internalType": "address",
          "name": "",
          "type": "address"
        }
      ],
      "stateMutability": "view",
      "type": "function"
    },
    {
      "inputs": [],
      "name": "renounceOwnership",
      "outputs": [],
      "stateMutability": "nonpayable",
      "type": "function"
    },
    {
      "inputs": [
        {
          "internalType": "address",
          "name": "from",
          "type": "address"
        },
        {
          "internalType": "address",
          "name": "to",
          "type": "address"
        },
        {
          "internalType": "uint256",
          "name": "tokenId",
          "type": "uint256"
        }
      ],
      "name": "safeTransferFrom",
      "outputs": [],
      "stateMutability": "nonpayable",
      "type": "function"
    },
    {
      "inputs": [
        {
          "internalType": "address",
          "name": "from",
          "type": "address"
        },
        {
          "internalType": "address",
          "name": "to",
          "type": "address"
        },
        {
          "internalType": "uint256",
          "name": "tokenId",
          "type": "uint256"
        },
        {
          "internalType": "bytes",
          "name": "data",
          "type": "bytes"
        }
      ],
      "name": "safeTransferFrom",
      "outputs": [],
      "stateMutability": "nonpayable",
      "type": "function"
    },
    {
      "inputs": [
        {
          "internalType": "address",
          "name": "operator",
          "type": "address"
        },
        {
          "internalType": "bool",
          "name": "approved",
          "type": "bool"
        }
      ],
      "name": "setApprovalForAll",
      "outputs": [],
      "stateMutability": "nonpayable",
      "type": "function"
    },
    {
      "inputs": [],
      "name": "supply",
      "outputs": [
        {
          "internalType": "uint256",
          "name": "",
          "type": "uint256"
        }
      ],
      "stateMutability": "view",
      "type": "function"
    },
    {
      "inputs": [
        {
          "internalType": "bytes4",
          "name": "interfaceId",
          "type": "bytes4"
        }
      ],
      "name": "supportsInterface",
      "outputs": [
        {
          "internalType": "bool",
          "name": "",
          "type": "bool"
        }
      ],
      "stateMutability": "view",
      "type": "function"
    },
    {
      "inputs": [],
      "name": "symbol",
      "outputs": [
        {
          "internalType": "string",
          "name": "",
          "type": "string"
        }
      ],
      "stateMutability": "view",
      "type": "function"
    },
    {
      "inputs": [],
      "name": "tokenIds",
      "outputs": [
        {
          "internalType": "uint256",
          "name": "",
          "type": "uint256"
        }
      ],
      "stateMutability": "view",
      "type": "function"
    },
    {
      "inputs": [
        {
          "internalType": "uint256",
          "name": "tokenId",
          "type": "uint256"
        }
      ],
      "name": "tokenURI",
      "outputs": [
        {
          "internalType": "string",
          "name": "",
          "type": "string"
        }
      ],
      "stateMutability": "view",
      "type": "function"
    },
    {
      "inputs": [
        {
          "internalType": "address",
          "name": "from",
          "type": "address"
        },
        {
          "internalType": "address",
          "name": "to",
          "type": "address"
        },
        {
          "internalType": "uint256",
          "name": "tokenId",
          "type": "uint256"
        }
      ],
      "name": "transferFrom",
      "outputs": [],
      "stateMutability": "nonpayable",
      "type": "function"
    },
    {
      "inputs": [
        {
          "internalType": "address",
          "name": "newOwner",
          "type": "address"
        }
      ],
      "name": "transferOwnership",
      "outputs": [],
      "stateMutability": "nonpayable",
      "type": "function"
    },
    {
      "inputs": [
        {
          "internalType": "uint256",
          "name": "_price",
          "type": "uint256"
        }
      ],
      "name": "updateMintPrice",
      "outputs": [
        {
          "internalType": "uint256",
          "name": "",
          "type": "uint256"
        }
      ],
      "stateMutability": "nonpayable",
      "type": "function"
    },
    {
      "inputs": [
        {
          "internalType": "uint256",
          "name": "_supply",
          "type": "uint256"
        }
      ],
      "name": "updateSupply",
      "outputs": [
        {
          "internalType": "uint256",
          "name": "",
          "type": "uint256"
        }
      ],
      "stateMutability": "nonpayable",
      "type": "function"
    },
    {
      "inputs": [],
      "name": "withdraw",
      "outputs": [
        {
          "internalType": "bool",
          "name": "",
          "type": "bool"
        }
      ],
      "stateMutability": "payable",
      "type": "function"
    }
  ],
  "bytecode": "0x60806040526000600855674563918244f40000600955612710600a553480156200002857600080fd5b5060405162001da738038062001da78339810160408190526200004b9162000143565b806040518060400160405280600a8152602001695465737445524337323160b01b815250604051806040016040528060048152602001631513919560e21b81525081600090816200009d91906200021a565b506001620000ac82826200021a565b5050506001600160a01b038116620000de57604051631e4fbdf760e01b81526000600482015260240160405180910390fd5b620000e981620000f1565b5050620002e6565b600780546001600160a01b038381166001600160a01b0319831681179093556040519116919082907f8be0079c531659141344cd1fd0a4f28419497f9722a3daafe3b4186f6b6457e090600090a35050565b6000602082840312156200015657600080fd5b81516001600160a01b03811681146200016e57600080fd5b9392505050565b634e487b7160e01b600052604160045260246000fd5b600181811c90821680620001a057607f821691505b602082108103620001c157634e487b7160e01b600052602260045260246000fd5b50919050565b601f8211156200021557600081815260208120601f850160051c81016020861015620001f05750805b601f850160051c820191505b818110156200021157828155600101620001fc565b5050505b505050565b81516001600160401b0381111562000236576200023662000175565b6200024e816200024784546200018b565b84620001c7565b602080601f8311600181146200028657600084156200026d5750858301515b600019600386901b1c1916600185901b17855562000211565b600085815260208120601f198616915b82811015620002b75788860151825594840194600190910190840162000296565b5085821015620002d65787850151600019600388901b60f8161c191681555b5050505050600190811b01905550565b611ab180620002f66000396000f3fe60806040526004361061018a5760003560e01c80636bd08049116100d6578063a22cb4651161007f578063d0def52111610059578063d0def52114610420578063e985e9c514610433578063f2fde38b1461047c57600080fd5b8063a22cb465146103c0578063b88d4fde146103e0578063c87b56dd1461040057600080fd5b8063715018a6116100b0578063715018a6146103785780638da5cb5b1461038d57806395d89b41146103ab57600080fd5b80636bd080491461032257806370a0823114610342578063714cff561461036257600080fd5b806323b872dd1161013857806342966c681161011257806342966c68146102cc5780636352211e146102ec5780636817c76c1461030c57600080fd5b806323b872dd146102845780633ccfd60b146102a457806342842e0e146102ac57600080fd5b806306fdde031161016957806306fdde0314610208578063081812fc1461022a578063095ea7b31461026257600080fd5b8062728e461461018f57806301ffc9a7146101c2578063047fc9aa146101f2575b600080fd5b34801561019b57600080fd5b506101af6101aa366004611572565b61049c565b6040519081526020015b60405180910390f35b3480156101ce57600080fd5b506101e26101dd3660046115a1565b6104b3565b60405190151581526020016101b9565b3480156101fe57600080fd5b506101af600a5481565b34801561021457600080fd5b5061021d6104f7565b6040516101b9919061160e565b34801561023657600080fd5b5061024a610245366004611572565b610589565b6040516001600160a01b0390911681526020016101b9565b34801561026e57600080fd5b5061028261027d366004611638565b6105b2565b005b34801561029057600080fd5b5061028261029f366004611662565b6105c1565b6101e261066a565b3480156102b857600080fd5b506102826102c7366004611662565b61078a565b3480156102d857600080fd5b506102826102e7366004611572565b6107aa565b3480156102f857600080fd5b5061024a610307366004611572565b61083c565b34801561031857600080fd5b506101af60095481565b34801561032e57600080fd5b506101af61033d366004611572565b610847565b34801561034e57600080fd5b506101af61035d36600461169e565b6108d1565b34801561036e57600080fd5b506101af60085481565b34801561038457600080fd5b50610282610932565b34801561039957600080fd5b506007546001600160a01b031661024a565b3480156103b757600080fd5b5061021d610946565b3480156103cc57600080fd5b506102826103db3660046116b9565b610955565b3480156103ec57600080fd5b506102826103fb366004611781565b610960565b34801561040c57600080fd5b5061021d61041b366004611572565b610978565b6101af61042e3660046117fd565b610a89565b34801561043f57600080fd5b506101e261044e36600461185f565b6001600160a01b03918216600090815260056020908152604080832093909416825291909152205460ff1690565b34801561048857600080fd5b5061028261049736600461169e565b610b64565b60006104a6610bb8565b506009819055805b919050565b60006001600160e01b031982167f490649060000000000000000000000000000000000000000000000000000000014806104f157506104f182610bfe565b92915050565b60606000805461050690611892565b80601f016020809104026020016040519081016040528092919081815260200182805461053290611892565b801561057f5780601f106105545761010080835404028352916020019161057f565b820191906000526020600020905b81548152906001019060200180831161056257829003601f168201915b5050505050905090565b600061059482610c99565b506000828152600460205260409020546001600160a01b03166104f1565b6105bd828233610cd2565b5050565b6001600160a01b0382166105f057604051633250574960e11b8152600060048201526024015b60405180910390fd5b60006105fd838333610cdf565b9050836001600160a01b0316816001600160a01b031614610664576040517f64283d7b0000000000000000000000000000000000000000000000000000000081526001600160a01b03808616600483015260248201849052821660448201526064016105e7565b50505050565b6000610674610bb8565b6007546001600160a01b031633146106ce5760405162461bcd60e51b815260206004820152600c60248201527f556e617574686f72697a6564000000000000000000000000000000000000000060448201526064016105e7565b60006106e26007546001600160a01b031690565b6001600160a01b03164760405160006040518083038185875af1925050503d806000811461072c576040519150601f19603f3d011682016040523d82523d6000602084013e610731565b606091505b50509050806107825760405162461bcd60e51b815260206004820152601060248201527f5769746864726177206661696c65642e0000000000000000000000000000000060448201526064016105e7565b600191505090565b6107a583838360405180602001604052806000815250610960565b505050565b336107b48261083c565b6001600160a01b0316146108305760405162461bcd60e51b815260206004820152602660248201527f4f6e6c7920746865206f776e6572206f6620746865204e46542063616e20627560448201527f726e2069742e000000000000000000000000000000000000000000000000000060648201526084016105e7565b61083981610de5565b50565b60006104f182610c99565b6000610851610bb8565b60085482116108c85760405162461bcd60e51b815260206004820152603660248201527f4e657720737570706c79206d7573742062652067726561746572207468616e2060448201527f63757272656e74206d696e74656420737570706c792e0000000000000000000060648201526084016105e7565b50600a81905590565b60006001600160a01b038216610916576040517f89c62b64000000000000000000000000000000000000000000000000000000008152600060048201526024016105e7565b506001600160a01b031660009081526003602052604090205490565b61093a610bb8565b6109446000610e20565b565b60606001805461050690611892565b6105bd338383610e7f565b61096b8484846105c1565b6106643385858585610f37565b606061098382610c99565b506000828152600660205260408120805461099d90611892565b80601f01602080910402602001604051908101604052809291908181526020018280546109c990611892565b8015610a165780601f106109eb57610100808354040283529160200191610a16565b820191906000526020600020905b8154815290600101906020018083116109f957829003601f168201915b505050505090506000610a3460408051602081019091526000815290565b90508051600003610a46575092915050565b815115610a78578082604051602001610a609291906118cc565b60405160208183030381529060405292505050919050565b610a8184611062565b949350505050565b60006009543414610adc5760405162461bcd60e51b815260206004820152600e60248201527f35205155414920746f204d696e7400000000000000000000000000000000000060448201526064016105e7565b600854600a548110610b305760405162461bcd60e51b815260206004820152600c60248201527f4e6f206d6f7265204e465473000000000000000000000000000000000000000060448201526064016105e7565b610b3a84826110d7565b610b448184611155565b600160086000828254610b5791906118fb565b9091555090949350505050565b610b6c610bb8565b6001600160a01b038116610baf576040517f1e4fbdf7000000000000000000000000000000000000000000000000000000008152600060048201526024016105e7565b61083981610e20565b6007546001600160a01b03163314610944576040517f118cdaa70000000000000000000000000000000000000000000000000000000081523360048201526024016105e7565b60006001600160e01b031982167f80ac58cd000000000000000000000000000000000000000000000000000000001480610c6157506001600160e01b031982167f5b5e139f00000000000000000000000000000000000000000000000000000000145b806104f157507f01ffc9a7000000000000000000000000000000000000000000000000000000006001600160e01b03198316146104f1565b6000818152600260205260408120546001600160a01b0316806104f157604051637e27328960e01b8152600481018490526024016105e7565b6107a583838360016111a5565b6000828152600260205260408120546001600160a01b0390811690831615610d0c57610d0c8184866112f0565b6001600160a01b03811615610d4a57610d296000856000806111a5565b6001600160a01b038116600090815260036020526040902080546000190190555b6001600160a01b03851615610d79576001600160a01b0385166000908152600360205260409020805460010190555b600084815260026020526040808220805473ffffffffffffffffffffffffffffffffffffffff19166001600160a01b0389811691821790925591518793918516917fddf252ad1be2c89b69c2b068fc378daa952ba7f163c4a11628f55a4df523b3ef91a4949350505050565b6000610df46000836000610cdf565b90506001600160a01b0381166105bd57604051637e27328960e01b8152600481018390526024016105e7565b600780546001600160a01b0383811673ffffffffffffffffffffffffffffffffffffffff19831681179093556040519116919082907f8be0079c531659141344cd1fd0a4f28419497f9722a3daafe3b4186f6b6457e090600090a35050565b6001600160a01b038216610eca576040517f5b08ba180000000000000000000000000000000000000000000000000000000081526001600160a01b03831660048201526024016105e7565b6001600160a01b03838116600081815260056020908152604080832094871680845294825291829020805460ff191686151590811790915591519182527f17307eab39ab6107e8899845ad3d59bd9653f200f220920489ca2b5937696c31910160405180910390a3505050565b6001600160a01b0383163b1561105b57604051630a85bd0160e11b81526001600160a01b0384169063150b7a0290610f7990889088908790879060040161191c565b6020604051808303816000875af1925050508015610fb4575060408051601f3d908101601f19168201909252610fb191810190611958565b60015b61101d573d808015610fe2576040519150601f19603f3d011682016040523d82523d6000602084013e610fe7565b606091505b50805160000361101557604051633250574960e11b81526001600160a01b03851660048201526024016105e7565b805181602001fd5b6001600160e01b03198116630a85bd0160e11b1461105957604051633250574960e11b81526001600160a01b03851660048201526024016105e7565b505b5050505050565b606061106d82610c99565b50600061108560408051602081019091526000815290565b905060008151116110a557604051806020016040528060008152506110d0565b806110af8461136d565b6040516020016110c09291906118cc565b6040516020818303038152906040525b9392505050565b6001600160a01b03821661110157604051633250574960e11b8152600060048201526024016105e7565b600061110f83836000610cdf565b90506001600160a01b038116156107a5576040517f73c6ac6e000000000000000000000000000000000000000000000000000000008152600060048201526024016105e7565b600082815260066020526040902061116d82826119bb565b506040518281527ff8e1a15aba9398e019f0b49df1a4fde98ee17ae345cb5f6b5e2c27f5033e8ce79060200160405180910390a15050565b80806111b957506001600160a01b03821615155b156112b35760006111c984610c99565b90506001600160a01b038316158015906111f55750826001600160a01b0316816001600160a01b031614155b801561122757506001600160a01b0380821660009081526005602090815260408083209387168352929052205460ff16155b15611269576040517fa9fbf51f0000000000000000000000000000000000000000000000000000000081526001600160a01b03841660048201526024016105e7565b81156112b15783856001600160a01b0316826001600160a01b03167f8c5be1e5ebec7d5bd14f71427d1e84f3dd0314c0f7b2291e5b200ac8c7c3b92560405160405180910390a45b505b50506000908152600460205260409020805473ffffffffffffffffffffffffffffffffffffffff19166001600160a01b0392909216919091179055565b6112fb83838361140d565b6107a5576001600160a01b03831661132957604051637e27328960e01b8152600481018290526024016105e7565b6040517f177e802f0000000000000000000000000000000000000000000000000000000081526001600160a01b0383166004820152602481018290526044016105e7565b6060600061137a83611490565b600101905060008167ffffffffffffffff81111561139a5761139a6116f5565b6040519080825280601f01601f1916602001820160405280156113c4576020820181803683370190505b5090508181016020015b600019017f3031323334353637383961626364656600000000000000000000000000000000600a86061a8153600a85049450846113ce57509392505050565b60006001600160a01b03831615801590610a815750826001600160a01b0316846001600160a01b0316148061146757506001600160a01b0380851660009081526005602090815260408083209387168352929052205460ff165b80610a815750506000908152600460205260409020546001600160a01b03908116911614919050565b6000807a184f03e93ff9f4daa797ed6e38ed64bf6a1f01000000000000000083106114d9577a184f03e93ff9f4daa797ed6e38ed64bf6a1f010000000000000000830492506040015b6d04ee2d6d415b85acef81000000008310611505576d04ee2d6d415b85acef8100000000830492506020015b662386f26fc10000831061152357662386f26fc10000830492506010015b6305f5e100831061153b576305f5e100830492506008015b612710831061154f57612710830492506004015b60648310611561576064830492506002015b600a83106104f15760010192915050565b60006020828403121561158457600080fd5b5035919050565b6001600160e01b03198116811461083957600080fd5b6000602082840312156115b357600080fd5b81356110d08161158b565b60005b838110156115d95781810151838201526020016115c1565b50506000910152565b600081518084526115fa8160208601602086016115be565b601f01601f19169290920160200192915050565b6020815260006110d060208301846115e2565b80356001600160a01b03811681146104ae57600080fd5b6000806040838503121561164b57600080fd5b61165483611621565b946020939093013593505050565b60008060006060848603121561167757600080fd5b61168084611621565b925061168e60208501611621565b9150604084013590509250925092565b6000602082840312156116b057600080fd5b6110d082611621565b600080604083850312156116cc57600080fd5b6116d583611621565b9150602083013580151581146116ea57600080fd5b809150509250929050565b634e487b7160e01b600052604160045260246000fd5b600067ffffffffffffffff80841115611726576117266116f5565b604051601f8501601f19908116603f0116810190828211818310171561174e5761174e6116f5565b8160405280935085815286868601111561176757600080fd5b858560208301376000602087830101525050509392505050565b6000806000806080858703121561179757600080fd5b6117a085611621565b93506117ae60208601611621565b925060408501359150606085013567ffffffffffffffff8111156117d157600080fd5b8501601f810187136117e257600080fd5b6117f18782356020840161170b565b91505092959194509250565b6000806040838503121561181057600080fd5b61181983611621565b9150602083013567ffffffffffffffff81111561183557600080fd5b8301601f8101851361184657600080fd5b6118558582356020840161170b565b9150509250929050565b6000806040838503121561187257600080fd5b61187b83611621565b915061188960208401611621565b90509250929050565b600181811c908216806118a657607f821691505b6020821081036118c657634e487b7160e01b600052602260045260246000fd5b50919050565b600083516118de8184602088016115be565b8351908301906118f28183602088016115be565b01949350505050565b808201808211156104f157634e487b7160e01b600052601160045260246000fd5b60006001600160a01b0380871683528086166020840152508360408301526080606083015261194e60808301846115e2565b9695505050505050565b60006020828403121561196a57600080fd5b81516110d08161158b565b601f8211156107a557600081815260208120601f850160051c8101602086101561199c5750805b601f850160051c820191505b81811015611059578281556001016119a8565b815167ffffffffffffffff8111156119d5576119d56116f5565b6119e9816119e38454611892565b84611975565b602080601f831160018114611a1e5760008415611a065750858301515b600019600386901b1c1916600185901b178555611059565b600085815260208120601f198616915b82811015611a4d57888601518255948401946001909101908401611a2e565b5085821015611a6b5787850151600019600388901b60f8161c191681555b5050505050600190811b0190555056fea2646970667358221220915a3b898132f6c3ad4250b1b7294161f8b59d3be2d9158aa4d037dca9cdbce864736f6c63430008140033",
  "linkReferences": {},
  "deployedLinkReferences": {}
}